:020000040800F2
:10000000484C00208102000867390008433000088E
:1000100065390008990B0008294700080000000016
:10002000000000000000000000000000C101000806
:100030000D100008000000001D0200087D3F0008B0
:100040009B0200089B0200089B0200089B0200081C
:100050009B0200089B0200089B0200089B0200080C
:100060009B0200089B0200089B0200089B020008FC
:100070009B0200089B020008150E00089B02000866
:100080009B020008290E00089B020008A90B00082B
:100090009D0B00089B0200089B0200089B020008C1
:1000A0009B0200089B0200089B0200089B020008BC
:1000B0009B0200089B0200089B0200089B020008AC
:1000C0009B0200089B0200089B0200089B0200089C
:1000D0009B0200089B0200089B0200089B0200088C
:1000E0009B0200089B0200089B0200089B0200087C
:1000F0009B0200089B0200089B0200089B0200086C
:100100009B0200089B0200089B0200089B0200085B
:100110009B0200089B0200089B0200089B0200084B
:100120009B0200089B0200089B0200089B0200083B
:100130009B0200089B0200089B0200089B0200082B
:100140009B0200089B0200089B0200089B0200081B
:100150009B0200089B0200089B0200089B0200080B
:100160009B0200089B0200089B0200089B020008FB
:100170009B0200089B0200089B0200080000000090
:100180009B0200089B020008CD420008D9420008EB
:100190009B0200089B0200089B0200089B020008CB
:1001A00000000000000000009B020008DFF80CD0F7
:1001B00000F014FC00480047057E0008484C002071
:1001C0002C4B19680868B0E8F04F80F30988BFF33A
:1001D0006F8F4FF0000080F311887047000000001F
:1001E00008480068006880F308884FF0000080F33A
:1001F000148862B661B6BFF34F8FBFF36F8F00DF15
:1002000000BF00BF08ED00E0DFF80C00016841F41A
:1002100070010160704700BF88ED00E0EFF30980D6
:10022000BFF36F8F134B1A681EF0100F08BF20ED3D
:10023000108A20E9F04F106009B44FF0500080F3AD
:100240001188BFF34F8FBFF36F8F08F0FBFF4FF0A4
:10025000000080F3118809BC19680868B0E8F04F05
:100260001EF0100F08BFB0EC108A80F30988BFF3AE
:100270006F8F704714010020EFF305807047000076
:100280000648804706480047FEE7FEE7FEE7FEE730
:10029000FEE7FEE7FEE7FEE7FEE7FEE711400008A7
:1002A000AD0100082DE9F05F0546002092469B460F
:1002B00088460646814640241BE02846414647467C
:1002C000224600F054FA53465A46C01A914110D3C0
:1002D00011461846224600F03BFA2D1A67EB01083A
:1002E0004F4622460120002100F032FA17EB0009A8
:1002F0004E41201EA4F10104DFDC484631462A4667
:100300004346BDE8F09F002800DA4042704740EACB
:1003100001039B0703D009E008C9121F08C0042A83
:10032000FAD203E011F8013B00F8013B521EF9D26A
:100330007047D2B201E000F8012B491EFBD2704792
:100340000022F6E710B513460A4604461946FFF7A1
:10035000F0FF204610BD2DE9FE4F804681EA0300E4
:10036000C00F0C46009021F0004123F00045B8EB8F
:100370000200A94105D24046214690461C460B4644
:10038000024623F00040104347D0270DC7F30A0070
:10039000C3F30A510290401A019040286BDAC3F36C
:1003A000130040F4801B0098924620B10023D2EB4A
:1003B000030A63EB0B0B01985946C0F1400250460B
:1003C00000F0C6F906460D4650465946019A00F01F
:1003D000DEF910EB08006141002487EA115284EA3B
:1003E000E7731A4340D0009A62B3019A012A4FEA98
:1003F000075215DC001B61EB02014FF0004202EADC
:100400000752CDE90042001C41F5801132462B46CF
:1004100000F015FA03B0BDE8F08F40462146F9E739
:10042000001B61EB0201001C41F5801300185B41C9
:100430002018A2F5001747EB030140EAD570B61962
:100440006D4111E06D084FEA360645EAC0754FEA86
:100450000752001B61EB0201001C41F580114908A5
:100460004FEA30000019514132462B4603B0BDE837
:10047000F04F00F0D5B90098012240000023D0EBE6
:10048000020263EBE073009821464FEAE074B8EB98
:10049000000061EB0401E9E783F000435BE781F0D2
:1004A000004158E72DE9FE4F81EA030404F00044BF
:1004B00021F0004100944FF0000B23F0004350EA7C
:1004C00001045ED052EA03045BD0C3F30A54C1F3C3
:1004D0000A552C44A4F2F3340194A0FB0254C1F356
:1004E000130141F48011C3F3130343F4801301FBA0
:1004F000024400FB034E840A970A44EA815447EA07
:100500008357A4FB076802958D0A05FB07854FEA10
:10051000932C04FB0C542705029D4FEA065847EA2A
:100520001637B5EB08056EEB070C870E920E47EAFF
:10053000811742EA8312A7FB0201B6EB0B0164EBC1
:1005400000042B0D43EA0C335E1844EB1C50DA46D2
:100550005146E7FB0201C5F313044FEA0B3343EAAC
:1005600014534FEA0432019C43EA0603A4F10C043D
:100570000294009CCDE900B400F061F903B0BDE83D
:10058000F08F00200146F9E72DE9F04D81EA0304E0
:1005900004F0004B21F0004514464FF0000A23F010
:1005A000004150EA050220D054EA01021DD0C5F3F3
:1005B0000A570246C5F31303C1F31300C1F30A56E9
:1005C00040F4801543F48013A7EB0608101BD646B1
:1005D00008F2FD3873EB050002D308F1010801E0D1
:1005E00092185B41B8F1000F03DA00200146BDE824
:1005F000F08D00204FF48011064684460EE0171B54
:1006000073EB050705D3121B63EB050306434CEAA6
:10061000010C49084FEA300092185B4150EA01078B
:10062000EDD152EA030012D082EA040083EA050108
:10063000084305D0101BAB4106D20122002306E07F
:1006400000224FF0004302E06FF0010253101AEB5A
:1006500006004CEB085110EB0A0041EB0B01BDE822
:10066000F04D00F0DDB80EB5C10F80EAE07008442F
:10067000CA07002140F233438DE80E000A460B46BC
:1006800000F0DDF803B000BD70B5C1F30A5201F00F
:1006900000450024C1F3130140F2FF3341F48011FF
:1006A0009A4201DA002070BD40F233439A42A2F22E
:1006B000334203DC524200F05AF800E090402C43F1
:1006C000F1D0404270BD00F0004230F000400AD04E
:1006D000C10D01F56071C0F3160042EA0151C20874
:1006E00040071143704700200146704701F0004366
:1006F00030B421F0004150EA010206D00A0DA2F503
:100700006072C1F31301002A02DC30BC0020704784
:10071000440F44EAC104C100E01830BC00EBC250F1
:1007200000F047B830B50B460146002020220124D6
:1007300009E021FA02F59D4205D303FA02F5491BAF
:1007400004FA02F52844151EA2F10102F1DC30BDC5
:10075000202A04DB203A00FA02F100207047914081
:10076000C2F1200320FA03F3194390407047202A76
:1007700004DB203A21FA02F00021704721FA02F34B
:10078000D040C2F120029140084319467047202A08
:1007900006DBCB17203A41FA02F043EAE07306E0A9
:1007A00041FA02F3D040C2F12002914008431946B9
:1007B00070470029A8BF7047401C490008BF20F0BF
:1007C0000100704710B4B0FA80FC00FA0CF050EA57
:1007D000010404BF10BC704749B1CCF1200421FAD8
:1007E00004F411FA0CF118BF012121430843A3EBD3
:1007F0000C01CB1D4FEA00614FEA102042BF0020E0
:1008000010BC704700EBC35010440029A4BF10BCBB
:100810007047401C490008BF20F0010010BC704721
:1008200010B5141E73F1000408DA401C41F10001F8
:1008300092185B411A4301D120F0010010BD2DE94F
:10084000F04D92469B4611B1B1FA81F202E0B0FA46
:1008500080F220329046FFF77BFF04460F4640EAC5
:100860000A0041EA0B0153465A46084313D0114689
:1008700053EA010019D0C8F140025046FFF777FF54
:1008800005460E46504659464246FFF761FF08436B
:1008900005D0012004E020463946BDE8F08D002057
:1008A000054346EAE0762C4337430A986305E40A99
:1008B000A0EB08000022FD0A44EA47540A3002D5A2
:1008C00000200146E9E7010510196941DDE9084505
:1008D00000196941BDE8F04DA2E72DE9F04D002374
:1008E0001A461B1A8A4103DB00200146BDE8F08D41
:1008F000C1F30A52C1F3130141F480154FF0000B0C
:10090000D10702D100186D41521E0027044640F263
:10091000FF11384601EB620A3E468046024600203F
:100920004FF48011FFF723FFC2197141BB1846EB4A
:100930000100B4EB030C75EB000C04D3E41A65EB77
:10094000000517460E46241908F101006D41804646
:100950003428E3DDF91946EB0600091BA84103D250
:100960004FF0FF32134601E0002213461BEB070055
:1009700046EB0A51BDE8F04DFFF752BFC1F30A52F2
:10098000C1F3130140F2FF3341F480119A4202DABD
:1009900000200146704740F233439A42A2F23342AC
:1009A00002DC5242FFF7E3BEFFF7D2BE30B5041EB1
:1009B00071F1000404DB4FF00044404264EB01019C
:1009C000141E73F1000405DB1C464FF00043524235
:1009D00063EB0403994208BF904230BD064C074DBB
:1009E00006E0E06840F0010394E8070098471034FF
:1009F000AC42F6D3FFF7DEFB989C0008B89C0008D9
:100A00000EB540F2334102910021CDE900110A46B2
:100A10000B46FFF714FF03B000BD30B58C1810F87B
:100A2000012B12F00F0301D110F8013B120906D17E
:100A300010F8012B03E010F8015B01F8015B5B1E6D
:100A4000F9D101E001F8013B521EFBD1A142E6D3EE
:100A5000002030BD464910B54A6822F440324A6051
:100A60004A6843681A434A6001684A6822F48072FF
:100A70004A6001684A68036942EA03224A600168E1
:100A80004A6822F040724A6001684A6883681A43E3
:100A90004A6001688A6822F400628A6001688A6894
:100AA000C3681A438A60816A6FF07062D14201683C
:100AB0008A6822F070628A6001688A680CD0836A52
:100AC0001A438A6001688A6822F040528A6001688D
:100AD0008A68C36A1A4301E022F040528A600168C2
:100AE0008A6822F002028A6001688A68037E42EA0C
:100AF00043028A6090F82010002901684A680FD0EC
:100B000042F400624A6001684A6822F460424A6026
:100B100001684A68174C436A04EB43331A4301E007
:100B200022F400624A600168CA6A22F47002CA6252
:100B30000168CA6A838B104C04EB03531A43CA62E0
:100B400001688A6822F400728A6001688A6890F8F5
:100B5000303042EA43228A6001688A6822F4806267
:100B60008A6001688A68406942EA8020886010BD16
:100B70000023014000E0FFFF0000F0FF30B50C460D
:100B8000050008D0022C06D9FF22611E00F0BEFA33
:100B9000291901F8010C30BDFEE70000014800F002
:100BA00026BE000058090020014800F020BE0000C9
:100BB0005809002070B50C46054664A100F006F9FE
:100BC00018B1204607F062FAB9E061A1284600F0AA
:100BD000FDF818B1204607F0ADFAB0E05DA1284657
:100BE00000F0F4F818B1204607F0F0FAA7E05AA197
:100BF000284600F0EBF818B1204607F02DFB9EE0E8
:100C000056A1284600F0E2F80028DDD154A128467C
:100C100000F0DCF80028D7D152A1284600F0D6F821
:100C20000028D1D150A1284600F0D0F80028CBD11F
:100C30004EA1284600F0CAF80028C5D14CA128468C
:100C400000F0C4F800287AD14AA1284600F0BEF886
:100C5000002874D148A1284600F0B8F800286ED1C9
:100C600046A1284600F0B2F8002868D144A12846E1
:100C700000F0ACF8002862D142A1284600F0A6F8A6
:100C800000285CD140A1284600F0A0F8002856D1E9
:100C90003EA1284600F09AF8002850D13CA12846F1
:100CA00000F094F800284AD13AA1284600F08EF8C6
:100CB000002844D138A1284600F088F800283ED109
:100CC00036A1284600F082F8C8BB35A1284600F0BE
:100CD0007DF8A0BB33A1284600F078F878BB32A19C
:100CE000284600F073F850BB30A1284600F06EF89B
:100CF00010B106F03FFC22E02DA1284600F066F876
:100D0000E8B92CA1284600F061F8C0B92AA128460C
:100D100000F05CF898B929A1284600F057F870B99E
:100D200027A1284600F052F848B926A1284600F02D
:100D30004DF820B924A1284600F048F808B1002059
:100D400070BD2146284606F08BF8F8E72A310000EE
:100D50002A3200002A3300002A3400002A3500001D
:100D60002A3600002A3700002A3800002A390000FD
:100D7000233100002332000023330000233400001D
:100D800023350000233600004031000040320000CF
:100D90004033000040340000403500004036000081
:100DA0004037000040380000403900002431000086
:100DB00024320000243300002434000024360000D4
:100DC00024370000243800002439000030B50C46D8
:100DD000054603F0B7F80346204603F0B3F8834214
:100DE0000AD1002004E0295C225C914204D1401C1D
:100DF0009842F8DB012030BD002030BD0022835C2A
:100E000023B18B54521C642AF9DB00E08B5401207F
:100E10007047000010B5034800F06CFFBDE81040BB
:100E200005F042BF980A002008B5064800F062FFAE
:100E30000548007800F0A2F804480068016840689E
:100E4000009008BDF80A00206A020020580A00201D
:100E500001681823CAB2103AB2FBF3F2054B6FF3E4
:100E60000901032A9B5CC36500D9091D81650846F9
:100E700070470000289A000810B5014600208B69D1
:100E80008A6A4FF0C07453B1B3F5005F15D072B1E8
:100E9000012A0CD0022A0AD0032A09D104E01AB18F
:100EA000012A06D0022A03D1C96AC90100D501204E
:100EB00010BDC96AA142FAD010BD002AF7D0012A9C
:100EC000F2D0022AF3D0032AF3D010BD30B5046863
:100ED000256825F480252560046863608368402BBD
:100EE000036803D099600068C26030BD9A600068F2
:100EF000C16030BD2DE9F04781460027012603F08F
:100F000021F8050034D00024DFF868802DE0621C51
:100F10002146484603F01EF817A1FFF757FF88B196
:100F200022463946484603F015F802F071FF10EEEC
:100F3000100AFFF7C8FB08EBC602671CC2E90001F4
:100F4000761C11E0281B01280ED12A463946484656
:100F500003F000F802F05CFF10EE100AFFF7B3FB9D
:100F600008EBC602C2E90001641CAC42CFDB30468C
:100F7000BDE8F087680400202000000070B521491A
:100F8000214B28280A780BD012B19854521C0A70B1
:100F900029280BD10024D0B225461C540C700BE03C
:100FA000002AF2D1282018700120087070BD58194D
:100FB000407858556D1CEDB2134802F0C3FF401E37
:100FC000A842F4DC104802F0BDFF18440E4A00F8B5
:100FD000024C503AA2F114010B4802F02EFD0A48CF
:100FE0005038FFF787FF014607486438FFF7E2FDF6
:100FF0000549002050390C54401CC0B26428FAD373
:1010000070BD00000C0000209C030020704770475A
:1010100002460020431E115C202904D011B1401C5F
:101020006428F8DB184670470B4900200B4A887289
:101030000872487250700870A1F12802487010714F
:1010400088829070D07050711070054A9061D061A4
:10105000C881488270470000A40800208401002055
:10106000C800002010B5094800F0DAF9032107484C
:1010700000F084F9054800F009F9800504D5BDE8C1
:101080001040024800F004B910BD0000C80800205C
:1010900070B5002506462C4608E000BFFFF7E2FFCA
:1010A0000544052007F0F6F8641CE4B2B442F5D319
:1010B000B5FBF6F070BD000010B5094800F0B0F9BE
:1010C0000321074800F05AF9054800F0DFF88005D1
:1010D00004D5BDE81040024800F0DAB810BD0000A9
:1010E0001009002070B5002506462C4608E000BF18
:1010F000FFF7E2FF0544052007F0CCF8641CE4B2DA
:10110000B442F5D3B5FBF6F070BD000010B5054C48
:1011100004E000BF10F8013B5340E25C491EF9D2E5
:10112000104610BDB496000878B50024009490F8DD
:101130003C20012A19D0012280F83C200A680723AC
:101140000568092A13D9EE680A3A02EB4202934075
:101150009E43EE600B788A680A3B03EB43039A4098
:101160000368DD682A43DA6010E0022078BD2E694A
:1011700002EB420293409E432E610B788A6803EB98
:1011800043039A4003681D692A431A614A681F2372
:10119000072A13D205686E6B521E02EB820293403F
:1011A0009E436E630A8893B20A79521E02EB820252
:1011B00093400268556B2B43536327E005680D2A63
:1011C00012D22E6BD21F02EB820293409E432E63FB
:1011D0000B790A88DB1F92B203EB83039A40036802
:1011E0001D6B2A431A6311E0EE6A0D3A02EB82028C
:1011F00093409E43EE620B790A880D3B92B203EB5B
:1012000083039A400368DD6A2A43DA621B4B056850
:10121000194A9D420AD10D68122D07D1556825F44F
:1012200000055560556845F48005556005689D4288
:101230001DD1134D0B68AB4201D0112B17D1536850
:1012400023F480035360536843F400035360096838
:10125000A9420CD10B490C4A0968B1FBF2F101EB30
:101260008101490000E0491E00910029FBD180F86E
:101270003C40002078BD00000023014000200140D8
:10128000120000101001002040420F00006C704757
:101290000068C06C704770B504004FF0000503D0C3
:1012A000206C002610B107E0012070BD204600F040
:1012B0001DF8666484F83C60206CC00610D4206C75
:1012C00020F4885040F0020020642046FFF7C2FB63
:1012D0006664206C20F0020040F00100206400E011
:1012E000012584F83C60284670BD000070B586B0CA
:1012F000044614216846FFF723F81D491B4E256854
:1013000000231B4A143903241A48B54211D1156829
:1013100045F480751560126802F4807205920A68BF
:1013200042F001020A60096801F0010105911021F3
:1013300013E0114EB54216D1156845F400751560DD
:10134000126802F4007205920A6842F001020A6013
:10135000096801F0010105910421CDE9001402930F
:10136000694600F04FFE06B070BD0000002001404D
:101370004438024000000240002101402DE9F041C4
:10138000044600680D4681684FF0000749050BD5FB
:101390008068C00508D5206C40F02000206484F8E7
:1013A0003C700120BDE8F08100F01EFF06460FE012
:1013B000681C0DD025B100F017FF801BA84207D98B
:1013C000206C40F00400206484F83C700320E9E7BE
:1013D000206800688007EBD521686FF01200086074
:1013E000206C40F4007020642068816811F0405F38
:1013F00013D1217E89B9C16A11F4700F02D08068BF
:1014000040050AD4206C20F480702064206CC00455
:1014100003D4206C40F0010020640020C2E70000EB
:1014200018B50021009190F83C20012A07D0012234
:1014300080F83C2002689368DB0702D011E00220AC
:1014400018BD936843F0010393602A4A2A4B12683F
:10145000B2FBF3F202EB420200E0521E0092002ABD
:10146000FBD102689368DB0741D0036C40F2016452
:10147000A34343F48073036453685B0505D5036C91
:1014800023F4005343F480530364036CDB0404D55A
:10149000436C23F00603436400E0416480F83C1091
:1014A00016496FF02203136049680068CA061449A0
:1014B00006D088421BD1816811F0405F13D016E03E
:1014C0008842F8D00F4A904203D1D1F80423D206C3
:1014D000F1D00D4A90420AD1D1F8041301F01F0156
:1014E0001029E8D303E0816841F080418160002049
:1014F00018BD00001001002040420F0000230140F1
:1015000000200140002101400022014090F82020ED
:10151000012A07D0022A05D0416A41F480214162A4
:1015200001207047006842690A4342610020704709
:10153000F0B590F820500468A468012D05D0022D64
:1015400003D0416A41F4802153E014F0406F01D18F
:10155000E5004BD5C4F30164022C03D9416A41F480
:10156000000146E00125A5401D608D684FF4C07361
:101570009DB1CE6835434E6845EAC605066803EB63
:101580000417F5514FF4C275076805EB04150E6991
:101590007E51097D012905D009E00E88CD6845EA14
:1015A0004655EBE701684E5946F480764E51117965
:1015B000D2F805504FF4C67641EA0525016806EBDE
:1015C00004168D511178D2F801204FF4C47541EA08
:1015D0000221026805EB04155151006803EB041168
:1015E000425842F0010242500020F0BD416A41F4ED
:1015F000001141620120F0BD10B590F82020012AB1
:1016000007D0022A05D0416A41F4802141620120BD
:1016100010BD3B48D0F8002242F00102C0F8002281
:10162000D0F8002222F47C52C0F80022D0F8002228
:101630004B6A42EA0322C0F800220A7D02F01F032F
:1016400001229A40D0F81C329343C0F81C32CB6977
:10165000B3B9D0F80C329343C0F80C328C894B6884
:1016600064F31F434C6900EBC404C4F840320C8996
:101670000B6864F31F434C6900EBC404C4F84432A4
:10168000CB69012B16D1D0F80C321343C0F80C32C1
:101690000C884B6864F31F434C6900EBC404C4F826
:1016A00040320C89CB6864F31F434C6900EBC404DF
:1016B000C4F844328B69002BD0F804320ED01343A7
:1016C000C0F804320B69002BD0F8143208D0134351
:1016D000C0F81432096A012904D008E09343EFE707
:1016E0009343F5E7D0F81C121143C0F81C12D0F850
:1016F000001221F00101C0F80012002010BD00000E
:1017000000640040704730B590F82040012C05D0AF
:10171000022C03D0416A41F480215DE00468002975
:1017200055D02469A40754D04FF4D874056804EB4D
:1017300001142D5915F00405956005682D594ED0FA
:10174000ED08556005682C59C4F34004D4604FF48B
:10175000DA74056804EB01142D5905F00F051561C5
:1017600005682D59C5F30725956105682C59240C8A
:1017700054614FF4DC72046802EB0112A4581C702F
:101780000468A458240A5C700468A458240C9C7053
:101790000468A258120EDA704FF4DE72046802EB8D
:1017A0000112A4581C710468A458240A5C710468CE
:1017B000A458240C9C710468A258120EDA710068B7
:1017C00081B1016941F020010161002030BDE46870
:1017D000A8E7416A41F400114162012030BD6D0D5E
:1017E0001560AFE7C16841F02001C160EDE72DE968
:1017F000F05F0546006800244669D0F804908768C9
:10180000D0F80CB0D0F810A0D0F81880F10748D06C
:10181000F90714D001218160B80703D5284600F0EC
:101820001CFA0CE0780702D54FF4006407E0380793
:1018300002D54FF4805402E0284600F00DFAF80576
:1018400016D529684FF480708860B80503D52846FE
:1018500000F005FA0CE0780502D544F4005407E0E6
:10186000380502D544F4804402E0284600F0F6F939
:10187000F80316D529684FF480308860B80303D583
:10188000284600F0EEF90CE0780302D544F4004459
:1018900007E0380302D544F4803402E0284600F023
:1018A000DFF9300707D55FEACB6004D5296810203F
:1018B00044F40074C86070074FF0080707D55FEA6A
:1018C0000B7004D52868C760284600F05FF9B007A0
:1018D00006D52868C068800702D0284600F058F96D
:1018E000700607D55FEACA6004D52968102044F461
:1018F00080640861B00607D55FEA0A7004D52868DD
:101900000761284600F078F9F00606D528680069D6
:10191000800702D0284600F070F9B00308D55FEACE
:10192000C96005D5296810204860284600F066F98E
:10193000F00307D55FEA097004D528684760284698
:1019400000F090F9300446D55FEA497040D5F005C3
:1019500004D55FEAC87001D044F00104B00504D595
:101960005FEA887001D544F00204700504D55FEA8F
:10197000487001D544F00404300529D518F0700FE3
:1019800026D008F07000402815D006DC102809D0B9
:1019900020280AD0302816D10AE050280ED060281E
:1019A00011D10EE044F008040DE044F010040AE008
:1019B00044F0200407E044F0400404E044F08004D4
:1019C00001E044F480742868816921F0700181612C
:1019D000296804204860002C05D0686A20436862AA
:1019E0002846FFF78FFEBDE8F09F70B5040003D0D6
:1019F00094F8200010B104E0012070BD204600F0F2
:101A000081F82068016821F00201016000F0ECFB20
:101A10000546052604E000F0E7FB401B0A2811D824
:101A2000206840688007F6D42068016841F0010111
:101A3000016000F0D9FB05460BE000F0D5FB401B30
:101A40000A2806D9606A40F40030606284F8206099
:101A5000D2E720684068C007EFD0207E01282068C8
:101A600001683DD021F080010160607E012820687E
:101A7000016838D021F040010160A07E0128206873
:101A8000016833D021F020010160E07E0128206848
:101A900001682ED041F010010160207F01282068EC
:101AA000016829D021F008010160607F01282068C9
:101AB000016824D021F004010160D4E90201084347
:101AC000D4E90412114308436168491E08432168A0
:101AD000C86100206062012084F82000002070BDF1
:101AE00041F08001C0E741F04001C5E741F020012D
:101AF000CAE721F01001CFE741F00801D4E741F037
:101B00000401D9E710B586B0044614216846FEF7F3
:101B100017FC1B49206888422FD11A48002102680F
:101B200042F000720260006800F0007005901548F5
:101B30001038026842F0080202600068022200F0D9
:101B4000080005900320CDE90210CDE9000209202C
:101B5000049069460C4800F055FA00220521132034
:101B600000F0B4FB132000F0A3FB00220521142099
:101B700000F0ACFB142000F09BFB06B010BD000091
:101B80000064004040380240000C024070470000F2
:101B900000B50068154989B0884211D107AB6A4683
:101BA00000211348FFF7AFFD0098A0F50070013841
:101BB00008D0012804D1BDF81E000E4940BAC880E3
:101BC00009B000BD0B484838416A0A2905D2491CB2
:101BD000416290ED050A80ED070A0529F0D9054814
:101BE00007A9483805F06EFBEAE7000000640040F2
:101BF00058090020F001002070477047704700002E
:101C000070B5044690F82000012804D0606A40F4C2
:101C10000020606218E0022084F82000206801683B
:101C200021F00101016000F0DFFA05460EE000BF7F
:101C300000F0DAFA401B0A2808D9606A40F4003044
:101C40006062052084F82000012070BD2068406893
:101C5000C007EDD1606270BD704770477047704734
:101C60007047704770472DE9F0410446876D00F0DA
:101C7000BBFA064694F835000025022806D08020DD
:101C8000606584F834500120BDE8F0812068016867
:101C900021F0160101602068416921F08001416155
:101CA000206C08B9A06C20B12068016821F00801FF
:101CB00001602068016821F0010101600BE000F083
:101CC00093FA801B052806D92020606504F8345F4C
:101CD00003206070D8E720680068C007EFD194F84F
:101CE0005C103F208840B86004F8345F01206070C9
:101CF0000020C9E72DE9F84304464FF00009CDF86C
:101D0000009063484FF41651A56D0068B0FBF1F7E1
:101D10002E6894F85C10082000FA01F131420FD0CF
:101D200021680A6852070BD50A6822F004020A608B
:101D300094F85C108840A860606D40F00100606518
:101D400094F85C104FF0010808FA01F0304208D016
:101D500021684969090604D5A860606D40F0020059
:101D6000606594F85C1004208840304208D02168F7
:101D70000968890704D5A860606D40F004006065BB
:101D800094F85C1010208840304218D0216809680F
:101D9000090714D5A86020680168490304D50068C4
:101DA000000308D5A16C07E00168C90503D40168E8
:101DB00021F008010160216C09B12046884794F8A0
:101DC0005C1020208840304231D021680968C90663
:101DD0002DD5A86094F8350005282068016806D044
:101DE000490347D5006800031DD4616C1CE021F055
:101DF000160101602068416921F080014161206C79
:101E000008B9A06C20B12068016821F008010160C8
:101E100094F85C103F208840A86084F8349084F8DF
:101E20003580216D1FE0E16B09B120468847606D68
:101E300000282BD0606DC00714D0052084F8350031
:101E40002068016821F0010101600098401C0090A9
:101E5000B84203D820680068C007F6D184F83490EF
:101E600084F83580E16C002910D001B02046BDE82F
:101E7000F04308470168C905D5D4016821F0100175
:101E8000016084F8349084F83580CCE7BDE8F883AD
:101E9000100100202DE9F041044600F0A5F90646A6
:101EA0005CB1002584F83450022084F835002068A5
:101EB000016821F0010101600DE00120BDE8F08121
:101EC00000F092F9801B052805D9202060650320C9
:101ED00084F83500F2E720680068C007F0D1226876
:101EE000116820480140D4E901031843D4E90336BE
:101EF0003343184363691843A3691843E3691843DC
:101F0000236A18430843616A042903D1D4E90B13F7
:101F100019430843106020684069666A20F0070191
:101F200030460E43012704280CD1A06A0643E06A1C
:101F300040B12046FEF7A0FF20B14020606584F844
:101F40003570BAE7206846612046FEF781FF94F8B5
:101F50005C203F2191408160656584F835700020E8
:101F6000ACE700003F8010F02DE9F0410446866D9B
:101F700090F83400002501280DD0012084F83400A9
:101F800094F835700020012F07D084F83400022522
:101F90002846BDE8F0810220FBE7022784F835706F
:101FA00060652046FEF792FF94F85C103F20884061
:101FB000B0602068016841F0160101602068416945
:101FC00041F080014161206C20B12068016841F03E
:101FD000080101602068016841F001010160D7E754
:101FE00070B5044600F000F90546601C02D00448B4
:101FF0000078044400F0F8F8401BA042FAD370BD0A
:10200000040100202DE9F84FDFF890B100224FF0D5
:1020100001084FF0030A4FF00F090BF1040E00BF47
:102020000B6808FA02F42340A3426ED14D68022DDA
:1020300001D0122D0ED1D50800EB850CDCF8205014
:102040005607F70E09FA07F6B5430E69BE402E4350
:10205000CCF82060066855000F790AFA05FC07F0F5
:10206000030726EA0C06AF40374307604E68012E8F
:1020700005D0022E03D0112E01D0122E0ED187686A
:10208000CE6827EA0C07AE403E4386604668A6430A
:102090000C79C4F30014944034434460C4688E68DF
:1020A00024EA0C04AE402643C6604C68E4006FD5B9
:1020B0003B4C256845F480452560246822F00305E3
:1020C00004F480440094374C2E19D6F8084895073C
:1020D0002F0F09FA07F5AC43334DA84201D1002573
:1020E0002EE0324DA84201D1012529E0304DA84211
:1020F00001D1022524E02F4DA84201D103251FE084
:102100002D4DA84202D104251AE041E02B4DA842F2
:1021100001D1052514E02A4DA84201D106250FE082
:10212000284DA84201D107250AE0274DA84201D138
:10213000082505E0254DA84201D1092500E00A2522
:10214000BD402543C6F80858DBF800405D464E68A0
:102150009C43F60300D51C432C60DEF80040754616
:102160004E689C43B60300D51C432C600B4D0835CC
:102170002C684E689C43F60200D51C432C60074D2A
:102180000C352C684E689C43B60200D51C432C606D
:10219000521C102AFFF444AFBDE8F88F003C014008
:1021A0004438024000300140000002400004024078
:1021B00000080240000C02400010024000140240DF
:1021C00000180240001C024000200240002402408F
:1021D000426931EA020200D10904816170470AB103
:1021E000816170470904FBE701488068704700007F
:1021F0000401002002488168027811448160704720
:10220000040100200B4810B5016841F40071016021
:10221000016841F480610160016841F480710160EE
:10222000032000F073F80F2000F006F800F024F807
:10223000002010BD003C024070B50D4D04464FF427
:102240007A712878B1FBF0F00A490968B1FBF0F027
:1022500000F04DFC48B9102C07D200222146501E38
:1022600000F034F800206C6070BD012070BD0000EB
:1022700004010020100100200C4882B0016841F4E4
:1022800080410160006800F4804000900748001F12
:10229000016841F0805101600068002200F0805028
:1022A00000900F21901E02B000F010B84438024098
:1022B000002809DB00F01F02012191404009800045
:1022C00000F1E020C0F8001170470000F0B40E4BA0
:1022D0001B680C46C3F30223C3F10705042D00D984
:1022E0000425191D072901D2002300E0DB1E012669
:1022F00006FA05F1491E214099409E40761E16407F
:102300003143F0BC02F04CBA0CED00E0064900F09D
:10231000070208684FF6FF03184040EA0220034A0C
:1023200010430860704700000CED00E00000FA0563
:102330002DE9F0470E46050065D0DFF81481D8F886
:102340000000F7B200F00F00B04207D288F800702A
:10235000D8F8000000F00F00B04254D128683D4C7E
:10236000810712D5400703D5206840F4E050206073
:102370002878000703D5206840F46040206020687A
:10238000A96820F0F000084320602878C0072DD00D
:10239000304968680839012812D0022813D0032870
:1023A00011D00968890700292DDA216821F003017D
:1023B00001432160FFF718FF814641F2883A0EE0A1
:1023C00009688903EFE709688901ECE7FFF70CFF6B
:1023D000A0EB0901514502D90320BDE8F087206830
:1023E000696800F00C00B0EB810FEFD1D8F8001055
:1023F000404601F00F01B14207D90770006800F0B4
:102400000F00B04201D00120E7E72878400705D54A
:102410002068E96820F4E05008432060287800072D
:1024200006D52068296920F4604040EAC100206098
:1024300000F036F82168084AC1F30311515CC84026
:10244000064908600F20FFF7F7FE0020C5E70000EF
:10245000003C024008380240309A00081001002079
:102460000448054900680968044AC1F38221515CA7
:10247000C84070471001002008380240409A000808
:102480000448054900680968044AC1F34231515CB7
:10249000C84070471001002008380240409A0008E8
:1024A000154810B5006810F00C02144813D01449F8
:1024B000042A0FD0082A0ED10F4C241F226823684B
:1024C00002F03F025B0207D52068C0F38810A0FB32
:1024D000010106E0084610BD2168C1F38811A1FB87
:1024E00000010023FDF7DEFE2168C1F30141491C14
:1024F0004900B0FBF1F010BD083802400024F400A0
:10250000001BB7002DE9F84F050076D02878DFF8DA
:10251000F8B2BE4CC00749D0DBF800105846C1F3F2
:102520008101012908D00068C0F3810002280AD186
:10253000201D0068400206D52068800336D56868F3
:102540000028E2D032E06868B0F5803F10D0B0F5E6
:10255000A02F206810D020F480302060206820F464
:10256000802020606868A0B1FFF73EFE06460CE0C0
:10257000206840F48030F4E740F480202060F7E7E2
:10258000FFF732FE801B642873D820688003F7D5DC
:102590000CE0FFF729FE064605E000BFFFF724FE2A
:1025A000801B6428F0D820688003F7D42878DFF8EF
:1025B000608280074FF000093ED5DBF800105846D6
:1025C00011F00C0F09D00068C0F3810002280BD174
:1025D0008D48001F0068400206D42068800715D58A
:1025E000E868012809D111E0E868B8B10120C8F80D
:1025F0000000FFF7F9FD064605E002E1FFF7F4FDF4
:10260000801B0228C0D820688007F7D52068296978
:1026100020F0F80040EAC10020600DE0C8F800900A
:10262000FFF7E2FD064604E0FFF7DEFD801B02280F
:102630001FD820688007F7D42878000722D5724E6B
:10264000744869696C3671B101210160FFF7CCFDF6
:10265000074604E0FFF7C8FDC01B022809D8306810
:102660008007F7D50EE0C0F80090FFF7BDFD0746E4
:1026700005E083E0FFF7B8FDC01B02287ED8306874
:102680008007F7D42878400768D5DFF87CA10027B9
:102690000AF1380ADAF80000C0000BD4DAF80010AA
:1026A00041F08051CAF80010DAF80000012700F06C
:1026B00080500090584E3068C00510D4306840F407
:1026C00080703060FFF790FD009005E0FFF78CFD13
:1026D0000099401A022851D83068C005F6D54A4EF4
:1026E000A868683601280FD00528306810D020F07F
:1026F00001003060306820F004003060A868B8B194
:10270000FFF772FD00900FE0306840F00100F4E741
:1027100040F004003060F7E7FFF766FD0099411ACA
:1027200041F28830814264D830688007F4D50EE0E9
:10273000FFF75AFD009007E0FFF756FD0099411A98
:1027400041F28830814254D830688007F4D42FB1E8
:10275000DAF8001021F08051CAF80010A869C0B35F
:10276000DBF80010C1F3810102294AD00228484653
:1027700007D0C8F86000FFF737FD00E039E00546F4
:102780003AE04746C8F86000FFF72EFD064604E031
:10279000FFF72AFD801B02282BD820688001F7D480
:1027A000D5E907010843A96A1C4A490802EB01411F
:1027B0006A6A41EA8211084395F82C1040EA0161E7
:1027C0001148001F016001203866FFF70DFD054626
:1027D00005E014E0FFF708FD401B022809D8206837
:1027E0008001F7D50BE000BFFFF7FEFC401B02287D
:1027F00002D90320BDE8F88F20688001F4D40020BE
:10280000F8E70120F6E700000838024000380240EF
:1028100000004742800E4742007000400000FFFF6A
:1028200070B5040005D00025A56294F8510010B1E0
:1028300006E0012070BD84F85050204600F030F8CA
:10284000022084F851002068016821F040010160F5
:10285000D4E901010843D4E9031211430843616933
:102860000843218B01F400710843E1690843216AA0
:102870000843A16A084321680860A069042101EAAD
:102880001040616A0843216848602068C16921F4EA
:102890000061C1616565012084F85100002070BDB0
:1028A00010B586B0044614216846FDF749FD144969
:1028B0002068884221D113480021026842F4801226
:1028C0000260006800F4801005900E481438026819
:1028D00042F020020260006800F0200005904FF4F2
:1028E000607000900220CDE90101032003900520D3
:1028F000049069460448FFF785FB06B010BD000050
:102900000050014044380240001402402DE9F84FC5
:10291000044690F8500000270A9E1D4692468B46BA
:102920004FF0010901280ED0012084F85000FFF774
:102930005BFC804694F85100616801280CD0B1F529
:10294000827F07D102E00220BDE8F88FA16809B9B3
:10295000042801D00227C2E0BBF1000F27D0BAF152
:10296000000F24D01DB394F85100042802D0052094
:1029700084F8510000206065C4F838A0E587A58779
:10298000C4F830B0E586A5862064606420680168DC
:10299000490603D4016841F040010160E068B0F5E8
:1029A000006F606805D0E8B3012D46D07FE00127B5
:1029B00095E008B1012D39D1206B21680088C860ED
:1029C000206B801C2063E08E401EE0862EE0206895
:1029D000816889070FD5E18E69B1B9F1010F0AD17C
:1029E000216B0988C160206B801C2063E08E401E33
:1029F000E0864FF0000920688168C9070CD0E18F9C
:102A000051B1C068A16B0880A06B801CA063E08FEF
:102A1000401EE0874FF00109FFF7E6FBA0EB08003E
:102A2000B04200E009E001D3701C50D1E08E0028D4
:102A3000CDD1E08F0028CAD13FE0206B216800781B
:102A40000873206B401C2063E08E401EE0862EE061
:102A50002068816889070FD5E18E69B1B9F1010F4E
:102A60000AD1216B09780173206B401C2063E08E32
:102A7000401EE0864FF0000920688168C9070CD02D
:102A8000E18F51B1C068A16B0870A06B401CA063BE
:102A9000E08F401EE0874FF00109FFF7A5FBA0EB98
:102AA0000800B04202D3701C01D010E07EB1E08E6D
:102AB0000028CDD1E08F0028CAD1424631462046B9
:102AC00000F061FF28B101272020606507E003279F
:102AD00005E0A06818B92068C168806800900120EE
:102AE00084F85100002084F8500038462CE710B5D7
:102AF000401EB0F1807F01D3012010BD4FF0E024D3
:102B000060610F21601701F04BFE0020A0610720DB
:102B10002061002010BD000010B586B004461421CD
:102B20006846FDF70DFC0E492068884215D10D4816
:102B30000021026842F080020260006800F080001C
:102B40000590402000900220CDE901010920CDE947
:102B5000031069460448FFF755FA06B010BD00009F
:102B60000018004030380240001C024070B5044696
:102B700090F83C000D4601280DD0012684F83C60F9
:102B8000022084F83D0042B1042A18D0082A2AD035
:102B90000C2A4DD139E0022070BD206801F0D4FA32
:102BA0002068816941F0080181612068816921F014
:102BB00004018161206881692A69114311E020685C
:102BC00001F0F2FA2068816941F4006181612068B6
:102BD000816921F480618161206881692A6941EA03
:102BE0000221816124E0206801F014FB2068C169A2
:102BF00041F00801C1612068C16921F00401C1618F
:102C00002068C1692A69114311E0206801F036FB90
:102C10002068C16941F40061C1612068C16921F483
:102C20008061C1612068C1692A6941EA0221C161EC
:102C300084F83D60002084F83C0070BD10B50400AD
:102C400003D094F83D0010B107E0012010BD002032
:102C500084F83C00204600F00DF8022084F83D0086
:102C6000211D206801F0FEF9012084F83D000020BC
:102C700010BD000008B500680649884208D1064822
:102C8000016841F040010160006800F040000090E0
:102C900008BD0000001800404038024010B504464E
:102CA0000068012201F042FA0B492068884202D0F4
:102CB0000A49884203D1416C41F4004141642068D3
:102CC000816801F00701062903D0016841F0010184
:102CD0000160002010BD0000000001400004014020
:102CE00010B504460068416994F83920C1F3C01159
:102CF000212A0BD151B1416921F080014161206B42
:102D000008B1FEF7B0FF204601F042FB20684169A0
:102D100094F83A20C1F38011222A0BD151B14169B4
:102D200021F040014161606B08B1FEF79CFF204635
:102D300001F020FB002010BD08B5C16B082903D1AC
:102D4000006801684068009008BD70B5040004D0B8
:102D500094F83900002510B106E0012070BD84F818
:102D60003850204600F022F8242084F839002068EA
:102D7000C16821F40051C160204601F04DFB20687C
:102D8000016921F4904101612068416921F02A0123
:102D900041612068C16841F40051C160E5632020B1
:102DA00084F8390084F83A00002070BD2DE9F04F16
:102DB00087B0064614216846FDF7C2FA4648DFF898
:102DC0001481D6F800C0002443491038022301259D
:102DD00003220827DFF804E14FF020694FF4806AEE
:102DE0004FF4807BC44535D1D1F800C04CF0804C05
:102DF000C1F800C0096801F080410591016841F007
:102E0000100101600068694600F010000590D001D3
:102E10008DE82900CDE903277046FFF7F3F8314D1F
:102E20002F482860C5E90194C5E9034A6C61C5E9EA
:102E3000064B2C6228466C62FFF72CF808B1FEF7AF
:102E4000E6F87563002205215220AE63FFF73EFAD3
:102E5000522039E0DFF89080C44537D1D1F800C066
:102E60004CF0004CC1F800C0096801F00041059128
:102E7000016841F01001016000688DE82C0000F04D
:102E80001000CDE90470694603927046FFF7BAF866
:102E9000144D1348603548302860C5E90194C5E9F0
:102EA000034A6C61C5E9064B2C6228466C62FEF74A
:102EB000F1FF08B1FEF7ABF875630022052153203E
:102EC000AE63FFF703FA5320FFF7F2F907B0BDE84E
:102ED000F08F0000007800404038024000100240AF
:102EE00058600240980A0020007C0040F8B5044673
:102EF00090F83A0020283CD1C1B3BAB394F8380016
:102F0000012836D0012084F83800A162A28500256E
:102F1000E563222084F83A00636B1748D863636B3B
:102F200016481864636B1648D864606B13460565D1
:102F30000846666B216802463046091DFFF714F803
:102F4000206801684168009184F83850C16841F4F4
:102F50008071C1602068416941F0010141612068D0
:102F6000416941F0400141610020F8BDFFE70120C7
:102F7000FBE70220F9E700002F4300086B4300083D
:102F8000E5420008704770472DE9F843044690F881
:102F900039001F4616460D46202850D1A5B19EB1D6
:102FA00094F8380001284AD0012084F838004FF006
:102FB0000008C4F83C80212084F83900FFF714F998
:102FC000A6848146E68426E00120BDE8F883E08CF3
:102FD000401EE084A0684B46B0F5805F4FF00002D1
:102FE0004FF080012046009703D001F06BFBE8B959
:102FF0000DE001F067FBC8B928882168C0F308001C
:103000004860206908B16D1C05E0AD1C03E0216833
:1030100015F8010B4860E08C0028D8D14B460022FF
:1030200040212046009701F04DFB08B10320CCE77A
:10303000202084F8390084F838800020C5E7022079
:10304000C3E7FEE77FB50E2269463B2000F0FCF99E
:10305000BDF800009FED1C1A41BA1A48A0F11404F3
:103060000180BDF8021049BA4180BDF8041049BA88
:103070008180BDF8061049BA00EE101AB8EE400A79
:10308000C0EE010AB3EE050A30EE800ABDEEC00ABA
:1030900010EE101AC180BDF808104ABA2281BDF89E
:1030A0000A1049BA6181BDF80C305BBAA38128349B
:1030B0002589521B02816289891A4181A189591A85
:1030C00081817FBD9C0700205CEFA64310B53021B5
:1030D0006A2000F0E7F90A20FEF782FF0D21242084
:1030E00000F0E0F90A20FEF77BFF0E21282000F017
:1030F000D9F90A20FEF774FF8E21312000F0D2F9B1
:103100000A20FEF76DFF01210B2000F074F800206B
:1031100000F055F8102801D0012010BD0A20FEF75C
:103120005FFF00210A2000F066F80A2000F047F84F
:1031300008B1022010BD0A20FEF752FF00210B202B
:1031400000F059F80B2000F03AF808B1032010BD48
:103150000A20FEF745FF2421412000F04CF84120D1
:1031600000F02DF8242801D0042010BD0A20FEF71D
:1031700037FFC021422000F03EF8422000F01FF847
:10318000C02801D0052010BD0A20FEF729FF00212C
:103190002A2000F087F90A20FEF722FF00213420C0
:1031A00000F080F90A20FEF71BFF062203210E2003
:1031B00000F0A2F96420FEF713FF002010BD10B547
:1031C0000146322000F06EF90A20FEF709FF802147
:1031D000342000F067F90A20FEF702FF352000F0E6
:1031E0000BF904460021342000F05CF90A20FEF7B8
:1031F000F7FE204610BD70B50D46044600212A207A
:1032000000F050F90220FEF7EBFE2146292000F0E5
:1032100049F90220FEF7E4FE2946642000F042F955
:103220000220FEF7DDFE81212A2000F03BF9BDE8F7
:1032300070400A20FEF7D4BE10B5684C2DED0A8B05
:10324000B8EE00AAF0EE008AF7EE00AA94ED029A1A
:1032500094ED038A29EE0A0A68EE280A20EE090A8C
:1032600000EEC80A30EE2A0A10EE100AFDF72BFA1B
:1032700094ED010AD4ED000A41EC1B0B20EE280A64
:1032800060EEA80A20EE090A00EE880A10EE100A85
:10329000FDF719FA41EC100BB0EE4B1AF0EE6B1A79
:1032A00001F0AAFD9FED4E9B51EC100B53EC192B36
:1032B000FDF7F8F8FDF71AFA08EE100A4A4984ED0E
:1032C000178A94ED160A38EE400A10EE100A88426A
:1032D00002DDE06E401EE06610EE100A43498842AF
:1032E00002D9E06E401CE06684ED168A2069E8B9D8
:1032F000E06EFDF7B8F99FED3E1B53EC112BFDF787
:10330000D1F841EC1B0B18EE100AFDF7DCF953EC79
:103310001B2BFDF720F8FDF7E9F92066E069401C5A
:10332000E061B0F57A7F01DD0120206194ED018A32
:1033300028EE0A0A60EE080A94ED020A20EE28CA76
:103340004CEE400A30EEAA0A10EE100AFDF7BBF967
:1033500094ED030AD4ED000A41EC1B0B2CEE000A9D
:1033600060EEA80A00EE880A10EE100AFDF7ABF92D
:1033700041EC100BB0EE4B1AF0EE6B1A01F03CFD75
:1033800053EC192B51EC100BFDF78CF8FDF7AEF94F
:10339000A06694ED010AD4ED030A94ED021A20EE22
:1033A0000A0A20EE200AD4ED000A60EEA80A00EE18
:1033B000810A10EE100AFDF786F941EC100B01F0BE
:1033C000FFF953EC192B51EC100BFDF76BF8FDF7DF
:1033D0008DF96066BDEC0A8B10BD00003000002046
:1033E0006666666666A64C400000A5430000A5C35D
:1033F0000000000000807640F8B5104E0446002220
:1034000040213046FEF7EBFE44F080000C4C37259F
:10341000A21CE0700123511C0A480095FFF776FAC0
:10342000A21C0123511C07480095FFF76FFA0122E7
:1034300040213046FEF7D3FEA078F8BD00140240CC
:10344000A400002080090020F8B5134F15460E4651
:103450000446002240213846FEF7C1FE0F4944F0E1
:10346000800037244871891D8A1E08700123491E77
:103470000B480094FFF74AFA08492B463246891D4B
:1034800007480094FFF742FA012240213846FEF730
:10349000A6FE0020F8BD000000140240A400002099
:1034A00080090020F8B5114F0E4604460022402145
:1034B0003846FEF794FE04F07F000D4C3725224677
:1034C00060700123511C0B480095FFF71FFA6670CE
:1034D00022460123511C07480095FFF717FA0122E5
:1034E00040213846FEF77BFE0020F8BD0014024064
:1034F000A40000208009002070B50E460446014655
:1035000015462820FFF7CEFF0220FEF769FD0A21AD
:103510002920FFF7C7FF0220FEF762FD012164208A
:10352000FFF7C0FF0220FEF75BFD44F0800125207D
:10353000FFF7B8FF0220FEF753FD31462620FFF7C4
:10354000B1FF0220FEF74CFD03213420FFF7AAFF54
:103550000220FEF745FD03216720FFF7A3FF0220AD
:10356000FEF73EFD81212A20FFF79CFF0620FEF793
:1035700037FD45F080012720FFF794FFBDE870403C
:103580000720FEF72DBD00007FB5002415480094EC
:10359000019402941249039401604FF48031C0E910
:1035A00001140461047680F820400F49C0E90A1430
:1035B0000125C561C46080F830404561FDF76BFEB0
:1035C00008B1FDF724FD0420CDE900056946029409
:1035D0000448FDF7A9FD002801D0FDF718FD7FBDC7
:1035E00000200140C80800200100000F7FB5002422
:1035F00015480094019402941249039401604FF419
:103600008031C0E901140461047680F820400F493C
:10361000C0E90A140125C561C46080F830404561E5
:10362000FDF739FE08B1FDF7F2FC0220CDE90005F7
:10363000694602940448FDF777FD002801D0FDF7A4
:10364000E6FC7FBD00210140100900200100000FB1
:10365000104810B50E4901600321416000214FF46C
:1036600000228160C0E903124FF4401242610176EA
:10367000012242768176C17601774177FEF7B5F96E
:10368000002803D0BDE81040FDF7C1BC10BD00000C
:1036900000640040580900200D4808B5016841F455
:1036A000001101600068002200F400100090052164
:1036B0000E20FEF70BFE0E20FEF7FAFD002205217C
:1036C0001120FEF703FEBDE808401120FEF7F0BD13
:1036D0003038024010B59AB014221C496846FCF7F5
:1036E00016FE0021684604F0EBFD194C1749142220
:1036F0002060143105A8FCF70AFE002105A804F09B
:10370000DFFD12496060142228310AA8FCF7FFFD92
:1037100000210AA804F0D4FD0C49A06014223C3119
:103720000FA8FCF7F4FD00210FA804F0C9FD07491C
:10373000E0601422503114A8FCF7E9FD002114A820
:1037400004F0BEFD20611AB010BD0000C49900084D
:10375000F00000202DE9F04387B014216846FCF703
:10376000EFFD36480024016841F010010160016856
:1037700001F010010591016841F008010160016844
:1037800001F008010591016841F0800101600168C4
:1037900001F080010591016841F02001016001689C
:1037A00001F020010591016841F00101016000680C
:1037B000234F00F001000590002204213846FEF757
:1037C0000EFDDFF8808000223C214046FEF707FD19
:1037D000DFF8749044F24006002231464846FEF776
:1037E000FEFC0122D1023846FEF7F9FC40F6040047
:1037F00000900125CDE90154694638460394FEF74F
:1038000001FC3C200090CDE90154694640460394F8
:10381000FEF7F8FB0096CDE901546946484603944B
:10382000FEF7F0FB4FF460408DE831006946074831
:10383000FEF7E8FB07B0BDE8F08300003038024037
:1038400000100240001C024000140240000C024024
:10385000104810B50E4901604FF48271416000219B
:103860008160C1604FF400720161C0E9051230222D
:10387000C0E90721416281620A21C162FEF7D0FFDF
:10388000002803D0BDE81040FDF7C1BB10BD00000B
:10389000005001408009002010B588B01C21684606
:1038A000FCF74EFD12481149002401602921C0E9AE
:1038B00001144FF4FA71C0E903148461FFF7BEF9F3
:1038C00008B1FDF7A4FB6020CDE9000402940022BA
:1038D000694607480494FFF749F908B1FDF797FBDB
:1038E0000348FFF719F908B010BD000000180040A8
:1038F000D80900200C4810B50A4901604FF4E131A5
:103900004160002181600C22C160C0E90412816124
:10391000C161FFF71AFA002803D0BDE81040FDF797
:1039200076BB10BD00780040180A00200C4810B586
:103930000A4901604FF4E1314160002181600C22AD
:10394000C160C0E904128161C161FFF7FEF900287E
:1039500003D0BDE81040FDF75ABB10BD007C00400D
:10396000580A0020FEE7704701EE901AF8EE611A3F
:10397000C0ED031A01EE902AF8EE611AC0ED0A1AA2
:1039800080EC030A704738B50B46009204460022CB
:10399000802100F008F8002804D0606D40F020007D
:1039A0006065032038BD2DE9F0411D4617460E46DF
:1039B0000446DDF8188008E0681C06D0FEF714FC09
:1039C000A0EB0800A8420BD255B12068806836EA07
:1039D000000030D00020B842EED10020BDE8F081D8
:1039E0002068416821F0E00141606068B0F5827FA5
:1039F0000BD1A068B0F5004F02D0B0F5806F04D1B4
:103A00002068016821F040010160A06AB0F5005F04
:103A100009D12068016821F4005101602068016823
:103A200041F400510160012084F85100002084F825
:103A300050000320D2E70120CDE7F0B514460E4632
:103A40000746FDF7E5FA0346384600F07BFA0146E3
:103A5000002002E03A5C3254401C9842FADB002518
:103A6000F554581C06E0A0EB030C3A5CA444401C3F
:103A70000CF8012C8842F6DB65545B1C04D13146FE
:103A80003846FDF7BBF92570F0BD00002DED068B23
:103A90006C4C6D4D9FED6D8ADFED6D8A9FED6D9BDA
:103AA0006E4FDFF8BC81DFF8BC91DFF8BCA16F4E30
:103AB0004FF4006BA069FCF706FE41EC100B6CA004
:103AC00053EC102B00F044FE95ED060A60EE080A58
:103AD00080EEA80A10EE100AFCF7F5FD41EC100B81
:103AE00001F0F2FA53EC192B51EC100BFCF7DAFC55
:103AF00041EC1A0B2869FCF7E6FD53EC1A2BFCF796
:103B00002AFC41EC100B5FA053EC102B00F020FEC0
:103B1000E069FCF7D8FD41EC100B5EA053EC102BD4
:103B200000F016FE95ED060A60EE080A80EEA80A7F
:103B300010EE100AFCF7C7FD41EC100B01F054FA2F
:103B400053EC192B51EC100BFCF7ACFC41EC1A0BAD
:103B50006869FCF7B8FD53EC1A2BFCF79DFC41ECAF
:103B6000100B53A053EC102B00F0F2FD206AFCF771
:103B7000AAFD41EC100B52A053EC102B00F0E8FD15
:103B8000217956A000F0E4FDA1785AA000F0E0FDF4
:103B9000B4F910105DA000F0DBFD697A60A000F0C0
:103BA000D7FDB7F9081066A000F0D2FDD8F80000E4
:103BB000FCF789FD41EC100B67A053EC102B00F0D3
:103BC000C7FDD9F80000FCF77EFD41EC100B6AA0A0
:103BD00053EC102B00F0BCFDDAF80000FCF773FD8D
:103BE00041EC100B6CA053EC102B00F0B1FD706A8F
:103BF000FCF769FD41EC100B6DA053EC102B00F0AD
:103C0000A7FD286CFCF75FFD41EC100B70A053EC96
:103C1000102B00F09DFDB069FCF755FD41EC100B39
:103C200073A053EC102B00F093FD59467648FEF735
:103C3000CFFA4FF480417548FEF7CAFAC82004F065
:103C400029FB37E7A4080020E0070020DA0F4940ED
:103C5000000034430000000000005F406C080020BA
:103C6000C4000020C0000020DC0000202408002048
:103C70006C6465616C5F616E676C653D20252E32FA
:103C8000660D0A00706F735F78203D20252E326626
:103C90000D0A00006C6F6769635F646174612E7068
:103CA0006F735F78203D20252E32660D0A000000DC
:103CB000706F735F79203D20252E32660D0A00005B
:103CC0006C6F6769635F646174612E706F735F7995
:103CD000203D20252E32660D0A00000063616C69CC
:103CE00062726174696F6E5F666C6167203D20254A
:103CF000640D0A0063697263756C61725F666C6162
:103D000067203D2025640D0A000000007374617275
:103D1000745F636E74203D2025640D0A000000006E
:103D20006C6F636174696F6E5F6D732E7374617411
:103D3000655F666C6167203D2025640D0A00000008
:103D4000667269635F646174612E73706565642077
:103D50003D2025640D0A00006C617A65725F646124
:103D600074612E6C6566745F646973203D20252E36
:103D700032660D0A000000006C617A65725F646152
:103D800074612E72696768745F646973203D2025D1
:103D90002E32660D0A0000006C696D69745F6469FB
:103DA0007374616E6365203D20252E32660D0A0016
:103DB00067696D62616C5F7961772E746F74616C95
:103DC0005F616E676C65203D20252E32660D0A000E
:103DD0006C6F636174696F6E5F6D732E6469737469
:103DE000616E63655F45203D20252E32660D0A0019
:103DF000616E676C655F6D6964646C653D20252E3E
:103E000032660D0A0000000000100240001402405B
:103E10002DE9F04106462DED088B4FF000089FED8F
:103E2000438B4446B0EE489AF0EE689A305D58B144
:103E3000A0F130010A2903D32E2801D02D2803D167
:103E4000641CE4B20A2CF1D3002504E0705D2E2836
:103E500003D06D1CEDB2A542F8D300279FED35AB22
:103E600015E0F05D2D2818D03038FCF7FCFB41EC54
:103E70001B0B53EC1A2B51EC190BFCF713FB53ECF7
:103E80001B2BFCF768FA41EC190B7F1CFFB2AF4209
:103E9000E7D37F1CFDB22F4618E04FF00108F4E78E
:103EA000705D30380A2813D2FCF7DDFB41EC1B0BA8
:103EB00053EC1A2B51EC180BFCF7F4FA53EC1B2BB8
:103EC000FCF749FA41EC180B6D1CEDB2A542E7D3A3
:103ED00000259FED1AABE41B0AE000BF53EC1A2B40
:103EE00051EC180BFCF7DEFA41EC180B6D1CEDB22F
:103EF000AC42F3DC53EC182B51EC190BFCF72BFA0A
:103F000041EC100BB8F1000F05D051EC100B81F013
:103F1000004141EC100B51EC100BFCF7E7FBBDEC42
:103F2000088B00EE100ABDE8F081000000000000E0
:103F30000000000000000000000024409A999999B8
:103F40009999B93F014600200A5C401C002AFBD128
:103F5000401E704770B50B46074C04E0E618C55C80
:103F6000761A5B1C35709342F8DB00202244511A0C
:103F70000870014870BD00000004002010B5FEF775
:103F800039F9BDE8104004F091B9000030B593B0A4
:103F900030216846FCF7D4F914210CA8FCF7D0F9BD
:103FA00019480025016841F080510160006800F067
:103FB000805011901548016841F44041016000684B
:103FC000022400F440401190012000900004019070
:103FD0008001CDE9064006200890A820CDE909041B
:103FE00004200B906846FEF78DFA0CA90F2081E89B
:103FF00031004FF4A0500F90E002109005210CA862
:10400000FEF796F913B030BD403802400070004012
:104010001048016841F4700101600F48016841F0E7
:10402000010101600C4A00210832116002680B4B4B
:104030001A400260031D0A4A1A60026822F48022B4
:10404000026005480C30016002495806803908605A
:104050007047000088ED00E000380240FFFFF6FEE8
:1040600010300024F0B50268254C264D264E274F0F
:10407000274B4FF0804CA04209D0604507D0A842A2
:1040800005D0B04203D0B84201D0984204D122F00A
:10409000700E4A6842EA0E02A0421BD0604519D059
:1040A000A84217D0B04215D0B84213D0984211D0D0
:1040B000184DA8420ED0184DA8420BD0174DA8425B
:1040C00008D0174DA84205D0164DA84202D0164D73
:1040D000A84203D122F44075CA682A434D6922F0F0
:1040E00080022A4302608A68C2620A688262A04231
:1040F00001D0984201D10969016301214161F0BDFC
:10410000000001400004004000080040000C004096
:1041100000040140004001400044014000480140CB
:1041200000180040001C00400020004010B501F0C5
:104130001F030121046A99408C430462016A9A407A
:104140001143016210BD0000F0B5026A22F00102C5
:104150000262036A42688469124E24F073050C6897
:104160002C4323F002058B682B430D4DA84201D050
:10417000B04205D123F00807CB683B4323F004038A
:10418000A84201D0B04205D14D6922F440721543D6
:104190008A692A4342608461496841630362F0BDD1
:1041A0000000014000040140F0B5026A22F0100254
:1041B0000262026A436884690D6824F4E64444EAB2
:1041C00005248D6822F0200242EA05120F4D104EA0
:1041D000A84201D0B04206D1CF6822F0800242EA64
:1041E000071222F04002A84201D0B04207D14D6927
:1041F00023F4406343EA85038D6943EA8503436002
:104200008461496881630262F0BD000000000140E2
:1042100000040140F0B5026A22F480720262026A70
:104220004368C46922F4007224F073050C68124ECE
:104230002C438D6842EA05220E4DA84201D0B042BF
:1042400006D1CF6822F4006242EA072222F480629B
:10425000A84201D0B04207D14D6923F4405343EA4C
:1042600005138D6943EA05134360C4614968C1635E
:104270000262F0BD000001400004014030B5026A56
:1042800022F480520262046A4268C3690D6823F412
:10429000E64343EA05238D6824F4005444EA0534D8
:1042A000084DA84202D0084DA84204D14D6922F41D
:1042B000804242EA85124260C36149680164046237
:1042C00030BD00000000014000040140014800F042
:1042D00069B80000180A0020014800F063B8000027
:1042E000580A002070B5846B2068406994F8391032
:1042F000C0F3C0100025212904D118B1E58420465F
:1043000000F046F82068406994F83A10C0F3801035
:10431000222904D118B1E585204600F02BF8E06B86
:1043200040F01000E0632046FEF706FD70BD10B5BA
:104330000146806B09680968C90513D40021C1854D
:104340000168CA6822F48072CA6001684A6922F072
:1043500001024A6101684A6922F040024A61202153
:1043600080F83A10FEF70EFE10BD10B5806BFEF718
:104370000AFE10BD0168CA6822F49072CA60016822
:104380004A6922F001024A61202180F83A10704700
:104390000168CA6822F0C002CA60202180F8391082
:1043A0007047000038B5044600681649884210D1AD
:1043B000154800680168C943C9060AD40168406805
:1043C00000901148FEF78CFC012210490E48FEF7C0
:1043D0008DFD0F492068884213D10E48006801689E
:1043E000C943C9060DD40168406800900948FEF72A
:1043F00077FCBDE838400549142232390548FEF7FC
:1044000075BD38BD007C0040580A00206A020020BB
:1044100000780040180A00202DE9F04104460068A9
:104420000169E26821F44051114301612169A068EA
:10443000E26908436169114322680843D16849F27F
:104440000C6399430143D16020684169A26921F45A
:10445000407111434161E2696425B2F5004F97480C
:10446000974922684FF032083FD08A4201D08242F9
:104470007CD1FEF705F800EBC00101EB001061688C
:104480008900B0FBF1F6FDF7FBFF00EBC00101EB8B
:10449000001061688900B0FBF1F0B0FBF5F06FF03F
:1044A0001801484306EB800108EB0110B0FBF5F062
:1044B00000F0F006FDF7E4FF00EBC00101EB001097
:1044C00061688900B0FBF1F0B0FBF5F006EB001677
:1044D000FDF7D6FF00EBC00101EB00106168890019
:1044E000B0FBF1F7FDF7CCFFD2E08A4201D0824267
:1044F0003DD1FDF7C5FF00EBC00101EB0010616885
:104500004900B0FBF1F0B0FBF5F00601FDF7B8FF94
:1045100000EBC00101EB001061684900B0FBF1F74E
:10452000FDF7AEFF00EBC00101EB00106168490030
:10453000B0FBF1F0B0FBF5F06FF01801484307EB6A
:10454000800108EBC100B0FBF5F000F0F80006EBCD
:104550004006FDF795FF00EBC00101EB001061681C
:104560004900B0FBF1F7FDF78BFF3CE055E0FDF7AC
:1045700077FF00EBC00101EB001061684900B0FB60
:10458000F1F0B0FBF5F00601FDF76AFF00EBC001AA
:1045900001EB001061684900B0FBF1F7FDF760FF27
:1045A00000EBC00101EB001061684900B0FBF1F0C5
:1045B000B0FBF5F06FF01801484307EB800108EB02
:1045C000C100B0FBF5F000F0F80006EB4006FDF787
:1045D00047FF00EBC00101EB001061684900B0FB30
:1045E000F1F7FDF73DFF00EBC00101EB0010616842
:1045F0004900B0FBF1F0B0FBF5F06FF01801484353
:1046000007EB800108EBC100B0FBF5F000F00700FC
:10461000216830448860BDE8F081FDF721FF00EBA0
:10462000C00101EB001061688900B0FBF1F6FDF7F5
:1046300017FF00EBC00101EB001061688900B0FBBF
:10464000F1F0B0FBF5F06FF01801484306EB800184
:1046500008EB0110B0FBF5F000F0F006FDF700FFED
:1046600000EBC00101EB001061688900B0FBF1F0C4
:10467000B0FBF5F006EB0016FDF7F2FE00EBC00113
:1046800001EB001061688900B0FBF1F7FDF7E8FE6F
:1046900000EBC00101EB001061688900B0FBF1F094
:1046A000B0FBF5F06FF01801484307EB800108EB11
:1046B0000110B0FBF5F000F00F00A9E70014014075
:1046C000001001402DE9F041984617460E46044679
:1046D000069D1DE0681C1BD02DB1FDF785FDA0EBEC
:1046E0000800A84214D92068C16821F4D071C160C3
:1046F0002068416921F001014161202084F83900DE
:1047000084F83A00002084F838000320BDE8F081E6
:104710002068006836EA000004D00020B842D9D0F2
:104720000020F3E70120F9E7FEE730B50C4605006D
:104730000CD0022C0AD9FF22611EFCF7E7FC2919D4
:1047400011F8011C814201D1012030BD002030BD93
:104750000FB4054B10B503A9044A029801F03CFAC6
:1047600010BC5DF814FB00004D73000888010020A8
:1047700003B401984100009850EAC12018BF0420FA
:104780004A0D18BF40F0010040F2FF72B2EB515FDA
:1047900008BF40F00200012808BF052002B07047A2
:1047A0000907090E002804DB00F1E02080F800145E
:1047B000704700F00F0000F1E02080F8141D7047F2
:1047C00070B5C1482DED020B2DED0E8B82B0119D01
:1047D00025F000449FEDBEDB9FEDBFEB84423EDB46
:1047E000A4F140511098A1F17F6108430FD0BC485B
:1047F000844202DC28D1109830B39DED100B02B03A
:10480000BDEC0E8B02B0BDE8704001F0E9B89DED43
:10481000100B53EC1D2B51EC100BFBF743FE9DEDE1
:10482000100B41EC180B53EC1E2B51EC100BFBF74B
:1048300039FE53EC182BFBF78EFD41EC100B02B048
:10484000BDEC0E8B02B070BD012001F00DF902B07D
:10485000BDEC0E8B02B0BDE8704001F0D5B8A148A8
:104860009FEDA18B844256DA9DED100BB4F1795F78
:104870000ADA51EC100BFFF77BFF042808BF01F0A8
:10488000D3F89DED100BDAE753EC102B51EC100B25
:10489000FBF708FE41EC190B95480621B0EE490ADA
:1048A000F0EE690A784400F087FF53EC192B51ECC5
:1048B000100BFBF7F7FD41EC1A0B8E48B0EE490ADE
:1048C000F0EE690A0421784400F076FF53EC192BCE
:1048D00051EC100BFBF7E6FD53EC182BFBF73BFDFF
:1048E00041EC100B51EC1A0B53EC102BFBF74CFE68
:1048F000CDE900019DED000B53EC102B9DED100B4D
:1049000051EC100BFBF7CEFD9DED101B53EC112B62
:10491000FBF721FDD2E09DED100B51EC100B02F0E6
:1049200009FD53EC182BFBF7BAFD9FED730BCDE996
:10493000000153EC102B9DED000B51EC100BFBF71D
:10494000B1FD41EC190B6E480621B0EE490AF0EEBC
:10495000690A784400F030FF53EC192B51EC100B2E
:10496000FBF7A0FD41EC1B0B6648B0EE490AF0EEE8
:10497000690A0421784400F01FFF53EC192B51EC15
:10498000100BFBF78FFD53EC182BFBF7E4FC41EC0D
:104990001C0B51EC190B03F0C7FF41EC180B5A48E4
:1049A0009FED5BABA04222DC53EC1C2B51EC1B0BAC
:1049B000FBF7EAFDCDE900019DED000B51EC180B72
:1049C00053EC102BFBF76EFD53EC182BFBF7C3FCDD
:1049D00053EC1A2BFBF766FD53EC1D2BFBF75CFD2C
:1049E00053EC1E2BFBF75BFD41EC100B5FE08DEDF4
:1049F000008B002000909DED000B51EC180B53EC48
:104A0000102BFBF7A8FC9DED000B41EC1E0B53ECAB
:104A1000102B51EC100BFBF745FD53EC192BFBF75A
:104A20003EFD53EC1E2BFBF7AFFD41EC190B53EC95
:104A30001C2B51EC1B0BFBF7A7FD41EC1B0B53ECA4
:104A40001A2B51EC190BFBF72DFD53EC1D2BFBF72B
:104A500026FD41EC190B53EC1A2B51EC180BFBF70C
:104A600021FD53EC1B2BFBF71DFD53EC192BFBF722
:104A700013FD9DED000B41EC180B53EC1A2B51EC80
:104A8000100BFBF70FFD9FED249B53EC192BFBF74D
:104A900006FD41EC100B51EC180B53EC102BFBF7FF
:104AA000FBFC53EC192BFBF7FAFC41EC100B002D2F
:104AB0003FF7C5AE51EC100B81F0004141EC100BFB
:104AC000BDE60000000000000000F03F0000000014
:104AD000075C143326A6913C182D4454FB21F93F62
:104AE0000000F07F0000E03F000000000000F03F09
:104AF000A0510000AE510000000000000000E03FA7
:104B0000F2500000005100003333EF3F000000007E
:104B10000000000000000040182D4454FB21E93F34
:104B200070B59B482DED020B2DED068B079D25F0F2
:104B30000044A04218DC9748844202DC0AD106985F
:104B400040B19DED060BBDEC068B02B0BDE8704098
:104B500000F046BF002DCCBF9FED8F0B9FED900B5B
:104B6000BDEC068B02B070BD8F48A04215DD8F48AA
:104B7000A042D8BF4FF0FF3458DD9DED060B51EC3D
:104B8000100BFFF7F5FD042808BF00F04DFF9DED69
:104B9000060BBDEC068B02B070BD9DED060B51EC13
:104BA000100B02F0C7FBCDE9060181489FED828B17
:104BB000A0423CDD8248A0421FDD00249FED82AB75
:104BC0009DED060B53EC1A2B51EC100BFBF7C3FBBE
:104BD0009DED060B41EC190B53EC1A2B51EC100B0D
:104BE000FBF760FC53EC182BFBF756FC53EC192B2E
:104BF000FBF7CAFCCDE9060149E09DED060B012457
:104C000053EC182B51EC100BFBF7A5FB9DED060B9D
:104C100041EC190B53EC182B51EC100BFBF73CFC3F
:104C200053EC192BFBF7B0FCCDE906012FE06848E7
:104C3000A0421FDD02249FED689B9DED060B53EC07
:104C4000192B51EC100BFBF72DFC53EC182BFBF739
:104C500082FB9DED060B41EC180B53EC192B51EC2C
:104C6000100BFBF719FC53EC182BFBF78DFCCDE96F
:104C700006010CE09DED060B032453EC102B9FED79
:104C8000580B51EC100BFBF77FFCCDE906019DEDB5
:104C9000060B53EC102B51EC100BFBF703FC41EC13
:104CA000180B53EC182BFBF7FDFB41EC190B4E488E
:104CB0000621B0EE490AF0EE690A784400F07CFD66
:104CC00053EC182B51EC100BFBF7ECFB41EC180BE1
:104CD0004648B0EE490AF0EE690A0521784400F032
:104CE0006BFD53EC192B51EC100BFBF7DBFB41EC8C
:104CF000100B51EC180B53EC102B002C0EDAFBF7B9
:104D00002AFB9DED061B53EC112BFBF7CBFB9DED16
:104D1000061B53EC112BFBF7C2FB35E0FBF71BFB2B
:104D20009DED061B53EC112BFBF7BCFB41EC100B6C
:104D30002F48784400EBC40090ED001B51EC100BA1
:104D400053EC112BFBF7A8FB9DED061B53EC112B2D
:104D5000FBF7A2FB41EC100B2648784400EBC400A3
:104D600090ED001B51EC100B53EC112BFBF797FB54
:104D700041EC100B002DA2BFBDEC068B02B070BD44
:104D800051EC100B81F0004141EC100B01E70000E9
:104D9000000010440000F07F182D4454FB21F93F1F
:104DA000182D4454FB21F9BF0000DC3F0000203ED9
:104DB0000000F33F00000000000000000000F03F92
:104DC0000000E63F0000000000000000000000407E
:104DD0000080034000000000000000000000F83FD9
:104DE000000000000000F0BF424E0000F84D00003F
:104DF000824D00003A4D000070B56B4E2DED040B56
:104E00002DED028B82B0DDF81CC0DDE905235C428C
:104E10002CF000411C4341EAD474049D22F0004070
:104E2000B44205D86C422C4340EAD474B4420BD946
:104E30009DED061B9DED040B02B0BDEC028B04B092
:104E4000BDE8704000F0D6BDACF14054A4F17F64E1
:104E50001C430BD0022404EAAC7444EAD274054328
:104E60009FED538B9FED542B07D015E09DED040B68
:104E700051EC100B01F010FF42E0002C11BF012C8F
:104E80009DED040B02B0BDEC028B04BF04B070BDFD
:104E9000022C38D0032C3BD00B439FED491B9FEDD8
:104EA0004A0B0AD0B14218D1B04209D121F0804159
:104EB00020F08040079105900FE0002A15DA10E0FD
:104EC000434B7B44002C08BF93ED000B0DD0012C0D
:104ED00010D0022C17D0032C1AD0B0421DD1002ABA
:104EE00003DAB0EE410AF0EE610A02B0BDEC028BCB
:104EF00004B070BD93ED000B51EC100B81F000413C
:104F000041EC100BF1E7B0EE480AF0EE680AECE76E
:104F1000B0EE420AF0EE620AE7E7401A00153C28BC
:104F2000C8BF8DED000B19DCBCF1000FBEBF10F146
:104F30003C0F9FED290B8DED000B0FDB9DED060B5C
:104F400053EC102B9DED040B51EC100BFBF71CFBED
:104F500002F0F0F901F0A0FECDE90001002C08BF3D
:104F60009DED000BC1D0012C10D0022C9FED1C0B2D
:104F700053EC102B9DED000B51EC100B0DD0FBF7FB
:104F80008BFA53EC182BFBF787FAB9E7019880F0FE
:104F9000004001909DED000BA7E7FBF77DFA53EC75
:104FA000182BFBF77CFAABE70000F07F0000000055
:104FB000182D4454FB210940182D4454FB2109C0ED
:104FC000182D4454FB21F9BF182D4454FB21F93FFF
:104FD0009A4C0000000000000000000000000000EB
:104FE000075C143326A6A13C10B52F499FED2C1B5E
:104FF0002DED020B84B0059820F000408842D8BF08
:105000009DED040B2DDD2949884209D1049840B952
:105010004FF0010000F028FD00F0F6FC06B010BDD6
:1050200005DB9DED040B00F0DBFC06B010BD68460F
:105030009DED040B00F0ECF810F0030004BF9DEDB3
:10504000021B9DED000B0CD001280ED09DED021B24
:105050009DED000B022817D0012000F029FC06B0BE
:1050600010BD00F0F1FA06B010BD9DED021B9DEDE4
:10507000000B012000F01CFC51EC100B81F00041F2
:1050800006B041EC100B10BD00F0DEFA51EC100B35
:1050900081F0004106B041EC100B10BD0000000093
:1050A0000000000000000000FB21E93F0000F07F4D
:1050B0002DED020B019820F0004001909DED000BBA
:1050C00002B070470000000010B52F499FED2C1B67
:1050D0002DED020B84B0059820F000408842DCBF23
:1050E00000209DED040B32DD2849884209D1049847
:1050F00040B94FF0010000F0B7FC00F085FC06B0AD
:1051000010BD05DB9DED040B00F06AFC06B010BD80
:1051100068469DED040B00F07BF810F0030011D001
:10512000012818D09DED021B9DED000B02281AD01E
:1051300000F08AFA51EC100B81F0004106B041EC0E
:10514000100B10BD9DED021B9DED000B012000F02A
:10515000AFFB06B010BD9DED021B9DED000B00F0F6
:1051600073FA06B010BD012000F0A2FB51EC100B49
:1051700081F0004106B041EC100B10BD00000000B2
:105180000000000000000000FB21E93F0000F07F6C
:1051900000B52DED048BB0EE409AF0EE609A83B02E
:1051A00051EC190BFBF799FB41EC180B18EE100AA8
:1051B00018EE901A8DED008B002818BF01200843CF
:1051C00020F00040C0F17F6000F1E040C00F14D03B
:1051D00019EE101A19EE900A8DED009B002918BFE8
:1051E0000121084320F00040C0F17F6000F1E04061
:1051F000C00F04BF012000F037FCB0EE480A03B036
:10520000F0EE680ABDEC048B00BD00000000000059
:105210002DE9F14F04462DED020B2DED088B8AB0E0
:105220009FEDE70B80ED020B139EE74826F000454B
:1052300085420ADC9DED120B002084ED000B0AB0C4
:10524000BDEC088B03B0BDE8F08FE0489FEDE0AB0C
:105250009FEDE1BBA84247DDE14F9FEDE39B9FED52
:10526000E48B9DED120B53EC1A2B51EC100B002E1E
:105270001CDDFBF711F941EC100BBD4208D053ECDB
:105280001B2B51EC100BFBF707F9C4E900010BE0F5
:1052900053EC192B51EC100BFBF7FEF853EC182BC9
:1052A000FBF7FAF8C4E900010120C8E7FBF753F85F
:1052B00041EC100BBD4208D053EC1B2B51EC100BF2
:1052C000FBF749F8C4E900010BE053EC192B51EC52
:1052D000100BFBF740F853EC182BFBF73CF8C4E934
:1052E00000014FF0FF30AAE7C348A84279DB9DEDEB
:1052F000120B51EC100B02F01DF841EC180B9FED56
:10530000C00B53EC102BFBF7CDF89FEDBF1B53ECFC
:10531000112BFBF720F8FBF7B7F90746FBF7A3F9CA
:1053200041EC190B53EC1A2BFBF7BCF853EC182B80
:10533000FBF7B5F841EC180B53EC1B2B51EC190B98
:10534000FBF7B0F8DFF8C8A241EC100B4FEA155894
:105350000125FA4453EC102B51EC180BFBF79CF889
:10536000032DC4E900013DD0C1F30A5005EB4511FE
:10537000A8EB00001139814234DA0AEB051BB0EECC
:1053800048AA9BED000BF0EE68AA53EC102B51ECF1
:10539000190BFBF787F841EC1B0B51EC1A0B53EC84
:1053A0001B2BFBF779F841EC180B51EC1A0B53EC63
:1053B000182BFBF771F853EC1B2BFBF76DF89BEDEB
:1053C000020B41EC1A0B53EC102B51EC190BFBF7B1
:1053D00069F853EC1A2BFBF75FF841EC100B6D1CCE
:1053E000B8E70EE0002EA8BF3846BFF628AF94ED10
:1053F000000B51EC100B81F00041C4E90001784230
:105400001DE7C6F3130040F4801EC6F30A50A0F255
:10541000F530471100F01F05C5F12000DDF848B058
:1054200008900020069007900520EC467949002D51
:1054300007EB0002794408BF51F8221009D051F857
:10544000223001EB8201AB404A68089922FA01F14F
:105450001943A1FB0E26A1FB0B131A449A4234BF39
:105460000123002303EB06080CEB8003D3E901A61C
:105470000E448E4234BF0121002192448A4411B16E
:10548000924502D903E0924501D2012100E00021BA
:10549000C3E901A641444CF82010011EA0F101000F
:1054A000C4DC029800F10050850F0298DDE9036723
:1054B0008000DDF81480FBF7D6F841EC1A0B30467B
:1054C000FBF79EFA9FED541B53EC112BFAF7EAFF02
:1054D00041EC1B0B3846FBF793FA9FED511B53EC45
:1054E000112BFAF7DFFF41EC180B4046FBF788FA67
:1054F0009FED4D1B53EC112BFAF7D4FF41EC190B28
:1055000051EC180B53EC192BFAF725FF53EC1B2B1E
:10551000FAF721FF53EC1A2BFAF71DFFCDE908012A
:10552000002008909DED080B53EC1A2B51EC100B4A
:10553000FAF7B2FF53EC1B2BFAF7AEFF53EC182B24
:10554000FAF7AAFF53EC192BFAF7A9FF9FED381BC6
:1055500053EC112BFAF7A6FF9FED370B41EC180B1C
:1055600053EC102B9DED080B51EC100BFAF79AFF42
:1055700053EC182BFAF7EFFE9FED310B41EC180BB3
:1055800053EC102B9DED080B51EC100BFAF78AFF32
:1055900053EC182BFAF7DFFE41EC100B139810F0C8
:1055A000004F06D06D4251EC100B81F0004141ECF0
:1055B000100B284684ED000B41E6000000000000BF
:1055C0000000000000000000FB21E93F7CD9024000
:1055D00000004054FB21F93F3163621A61B4D03DB1
:1055E000FB21F93F000000000000601A61B4D03DCB
:1055F0007370032E8A19A33BFB2139410000000080
:1056000083C8C96D305FE43F000000000000E03F48
:105610001248000060470000000000000000103E3B
:10562000000000000000103C000000000000103AE4
:10563000182D4454FB21F93D3326A611460B113C8D
:1056400000000054FB21F93D10B52DED040B2DEDAC
:10565000088B82B0B0EE419AF0EE619A0B9820F080
:1056600000449FED4BABB4F1795F11DA9DED0A0B6D
:1056700051EC100BFBF708F8002801BFB0EE4A0A06
:10568000F0EE6A0A02B0BDEC088B04BF04B010BD96
:105690009DED0A0B53EC102B51EC100BFAF702FFA7
:1056A00041EC180B3C480621B0EE480AF0EE680ABF
:1056B000784400F081F853EC182B51EC100BFAF7FA
:1056C000F1FE9DED0A0B41EC1B0B53EC192B51EC39
:1056D000100BFAF7E7FE41EC190B53EC1B2B51ECC6
:1056E000180BFAF7DFFE53EC192BFAF7D5FE9FEDF6
:1056F0002C0B41EC190B53EC102B51EC180BFAF757
:10570000D1FE41EC100B2848844210DA53EC192BDF
:1057100051EC100BFAF7C0FE53EC1A2BFAF7BFFE50
:1057200041EC100B02B0BDEC088B04B010BD1F485B
:10573000A042BCBF9FED1E1B8DED001B06DBA4F538
:1057400000100190002000909DED001B51EC100B0B
:1057500053EC112BFAF7A0FE9DED000B41EC180B5A
:1057600053EC102B51EC1A0BFAF796FE41EC1A0B86
:1057700053EC192B51EC180BFAF78EFE53EC1A2B45
:10578000FAF78DFE41EC100BCCE7000000000000A2
:10579000000000000000F03F7C440000000000001A
:1057A000000000000000E03F3333D33F0000E93F3A
:1057B000000000000000D23F70B504462DED028BC2
:1057C0004D1E00EBC500B0EE408AF0EE608A90ED11
:1057D000000B35F0060017D053EC182B51EC100BD2
:1057E000FAF760FE41EC100B6D1E04EBC50090ED66
:1057F000001B51EC100B53EC112BFAF7ACFD41ECF4
:10580000100B35F00600E7D1022D36D0042D1CD048
:10581000062D1CBFBDEC028B70BD53EC182B51EC58
:10582000100BFAF73FFE94ED0A1B53EC112BFAF71D
:1058300092FD53EC182BFAF735FE94ED081B53EC50
:10584000112BFAF788FD41EC100B53EC182B51EC9F
:10585000100BFAF727FE94ED061B53EC112BFAF709
:105860007AFD53EC182BFAF71DFE94ED040B53EC64
:10587000102BFAF770FD41EC100B53EC182B51EC88
:10588000100BFAF70FFE94ED021B53EC112BFAF7F5
:1058900062FD53EC182BFAF705FE94ED001B53EC58
:1058A000112BFAF758FDBDEC028B41EC100B70BDCB
:1058B00031B504462DED040B2DED0A8BB0EE41BA47
:1058C000F0EE61BA0B989DED0A0B20F00040B0F1AC
:1058D000795F0DDA51EC100BFEF74AFF042808BF80
:1058E00000F0A2F89DED0A0BBDEC0A8B05B030BDAF
:1058F00053EC102B51EC100BFAF7D4FD41EC180BC4
:105900009DED0A0B53EC182B51EC100BFAF7CAFD66
:1059100041EC190B2C48B0EE480AF0EE680A05215C
:105920007844FFF749FF9FED2ACBB0EE40AAF0EE96
:1059300060AA9CB353EC1C2B51EC190BFAF7B2FD87
:1059400041EC1C0B53EC1A2B51EC190BFAF7AAFD86
:105950009FED210B41EC190B53EC102B51EC1B0B61
:10596000FAF7A0FD53EC192BFAF796FD53EC182B20
:10597000FAF798FD53EC1B2BFAF78EFD53EC1C2B1A
:10598000FAF78AFD9DED0A1B53EC112BFAF787FD00
:10599000BDEC0A8B05B041EC100B30BDFFE753ECBA
:1059A0001A2B51EC180BFAF77DFD53EC1C2BFAF770
:1059B000D2FC53EC192BFAF775FD9DED0A1B53EC45
:1059C000112BFAF7C8FCE3E70C43000000000000CD
:1059D000495555555555C5BF000000000000E03F32
:1059E00010B553EC102B51EC100BFAF7B4FC41EC52
:1059F000100B10BD10B553EC112B51EC100BFAF736
:105A0000AAFC41EC100B10BD9FED050B10B553EC3B
:105A1000102B51EC100BFAF7B7FD41EC100B10BD39
:105A200000000000000000009FED050B10B553ECD6
:105A3000102B51EC100BFAF735FD41EC100B10BD9B
:105A4000000000000000001002E008C8121F08C19A
:105A5000002AFAD170477047002001E001C1121FEF
:105A6000002AFBD170470000014908607047000020
:105A70008C0100202DE9FF5FDDE90220010DDDF83A
:105A800038B0024318D044F61050A1F2FF31414320
:105A90000D140F98012820D0A5EB0B00401C5FEAE5
:105AA000000A4FF00004474EDFF81C91A046504614
:105AB00016D5CAF1000728E00F98012443A2012857
:105AC00008D0002100980F9BC0E90021C0E90243E3
:105AD000BDE8FF9F6FEA0B01F4E7CBF10000DEE7C2
